:020000040000FA
:060000000A128A11DC2F38
:10000C00F200F0307205F0008312031308080F3968
:10001C0070048800081588150000831203138811DA
:10002C000330F1009730F000F00B1A28F10B1A286E
:10003C001F287208F00004300310F00DFF3E031D62
:10004C0022288312031308080F39700488008815BE
:10005C0000008312031388110830F100C930F0003E
:10006C00F00B3628F10B36283B28080083160313B7
:10007C003308F3003208F2003108F1003008F000C8
:10008C000030F7000030F6000030F5000030F400CE
:10009C000A128A1562200A128A1103185628572848
:1000AC006628213083160313D5000030D6000030AB
:1000BC00B3000030B2000030B1000030B00087292E
:1000CC00831603133308F3003208F2003108F100F1
:1000DC003008F0000030F7000030F6000030F5007A
:1000EC000030F4000A168A119B260A128A11031C8E
:1000FC00802881289028223083160313D5000030E5
:10010C00D6000030B3000030B2000030B100003037
:10011C00B0008729BF3083120313DC008030DB0072
:10012C000030DA000030D9004030A8000030A700C1
:10013C000030A6000030A500B430ED006D08A4001E
:10014C0083160313330883120313A30083160313BC
:10015C00320883120313A20083160313310883128F
:10016C000313A10083160313300883120313A0009A
:10017C000A128A1506200A128A1183120313230805
:10018C00AC002208AB002108AA002008A9000A1222
:10019C008A117B240A128A11831203132808E000A7
:1001AC002708DF002608DE002508DD000A128A1564
:1001BC0078250A128A11831203135C088316031321
:1001CC00B300831203135B0883160313B20083126C
:1001DC0003135A0883160313B1008312031359082F
:1001EC0083160313B000FF30B4070318B50AFF30B1
:1001FC00B5073308A3003208A2003108A10030086B
:10020C00A0000B3083120313ED006D08831603134B
:10021C00A4000830A5000030A6000A128A15BE21E1
:10022C000A128A11831603132308B3002208B200A2
:10023C002108B1002008B000330883120313DC003E
:10024C0083160313320883120313DB008316031384
:10025C00310883120313DA00831603133008831258
:10026C000313D9003F30A8003130A7007230A6002C
:10027C001830A500831603133408F0003508F1007C
:10028C000030F11BFF30F200F30001300A128A1526
:10029C0004210A128A11730883120313AC0072082A
:1002AC00AB007108AA007008A9000A128A117B24FD
:1002BC000A128A11831203132808E0002708DF00B2
:1002CC002608DE002508DD000A128A1578250A1298
:1002DC008A11831203135C0883160313B300831271
:1002EC0003135B0883160313B200831203135A081B
:1002FC0083160313B10083120313590883160313D7
:10030C00B00008007130831603138F008901073089
:10031C00831603178800003083120313A9000030E2
:10032C00A8002530A7008030A6000A168A111326D3
:10033C000A128A110A168A113C250A128A110A1607
:10034C008A1161240A128A11333083160313B80000
:10035C00BB30B700DF30B600B60BB229B70BB229F1
:10036C00B80BB229C0300A168A1166250A128A11F6
:10037C000030F000F1000A168A11D6250A128A11F3
:10038C00FF3083160313B6000330B7007008360233
:10039C00E8007108031C710A3702E900EA01E91B45
:1003AC00EA036A08EB00063083160313B800133017
:1003BC00B700AD30B600B60BE129B70BE129B80B8D
:1003CC00E1290130F0000030F1000A168A11D6251F
:1003DC000A128A11700883160313CD007108CE001F
:1003EC000030CE1BFF30CF00D00006308316031335
:1003FC00B8001330B700AD30B600B60B032AB70BFC
:10040C00032AB80B032A0230F0000030F1000A1660
:10041C008A11D6250A128A11700883160313C90093
:10042C007108CA000030CA1BFF30CB00CC0006306C
:10043C0083160313B8001330B700AD30B600B60BFB
:10044C00252AB70B252AB80B252AC1308312031392
:10045C00DC002030DB000030DA000030D9008316DD
:10046C0003136B08F3006A08F2006908F1006808CE
:10047C00F00001300A128A1504210A128A1173083D
:10048C0083120313C2007208C1007108C000700807
:10049C00BF004630C6002030C5002830C4000030F4
:1004AC00C3000A128A159B230A128A1183120313A2
:1004BC004208E0004108DF004008DE003F08DD0094
:1004CC000A128A1578250A128A11831203135C0802
:1004DC0083160313BC00831203135B0883160313E8
:1004EC00BB00831203135A0883160313BA0083123A
:1004FC000313590883160313B900413083120313F5
:10050C00C2002030C1000030C0000030BF00831694
:10051C0003133C0883120313C600831603133B0812
:10052C0083120313C500831603133A0883120313B3
:10053C00C40083160313390883120313C3000A1271
:10054C008A159B230A128A118312031342088316FD
:10055C000313B30083120313410883160313B20071
:10056C0083120313400883160313B1008312031381
:10057C003F0883160313B0000A128A113C200A129A
:10058C008A11831603133308C0003208BF003108E8
:10059C00BE003008BD00413083120313DC005B3019
:1005AC00DB009830DA00EA30D900831603134008D8
:1005BC0083120313E000831603133F088312031303
:1005CC00DF00831603133E0883120313DE00831629
:1005DC0003133D0883120313DD000A128A157825D4
:1005EC000A128A11831203135C08C2005B08C10053
:1005FC005A08C0005908BF004530C6007F30C500FE
:10060C00A030C4000030C3000A128A159B230A12C2
:10061C008A1183120313420883160313C400831236
:10062C000313410883160313C300831203134008FA
:10063C0083160313C200831203133F08831603139C
:10064C00C100C33083120313DC008830DB00803020
:10065C00DA000030D9008316031344088312031305
:10066C00E00083160313430883120313DF00831681
:10067C000313420883120313DE008316031341088D
:10068C0083120313DD000A128A1578250A128A11C7
:10069C00831203135C0883160313C800831203131D
:1006AC005B0883160313C700831203135A088316BF
:1006BC000313C60083120313590883160313C500D2
:1006CC002F30B6003608F000D8300A168A11A42450
:1006DC000A128A113D3083160313B60036088312B2
:1006EC000313A000831603134808F3004708F20015
:1006FC004608F1004508F0000A168A11E9260A128C
:10070C008A11710883120313A2007008A100DF3054
:10071C00A3000030A400EC300A128A1598220A12A9
:10072C008A11EC3083160313B6003608F000D8306B
:10073C000A168A1113250A128A110630831603131E
:10074C00B8001330B700AD30B600B60BAB2BB70BFF
:10075C00AB2BB80BAB2B063083160313B80013303E
:10076C00B700AD30B600B60BB92BB70BB92BB80B25
:10077C00B92BF501D83083160313B6003608F600F2
:10078C0000300A168A11C5240A128A110630831603
:10079C000313B8001330B700AD30B600B60BD42B32
:1007AC00B70BD42BB80BD42BEC300A168A118D2432
:1007BC000A128A114130F300F030F2000030F100DF
:1007CC000030F000831603134808F7004708F600C2
:1007DC004608F5004508F4000A128A1562200A1230
:1007EC008A110318FA2BFB2B012C83120313091407
:1007FC0089100911632C4130F300F030F200003005
:10080C00F1000030F000831603134808F700470886
:10081C00F6004608F5004508F4000A128A15622015
:10082C000A128A11031C1B2C1C2C3D2C831603133F
:10083C004808F3004708F2004608F1004508F000AC
:10084C004130F700C030F6000030F5000030F40005
:10085C000A128A1562200A128A11031C362C372CB4
:10086C003D2C83120313091089140911632C831670
:10087C0003134808F3004708F2004608F100450846
:10088C00F0004130F700C030F6000030F5000030C9
:10089C00F4000A128A1562200A128A110318572CC6
:1008AC00582C5E2C83120313091089100915632C24
:1008BC0083120313091089100911153083160313C1
:1008CC00B8004B30B700BD30B600B60B6B2CB70B75
:1008DC006B2CB80B6B2C722C0A168A112E240A1254
:1008EC008A11BE290A128A110028831203132808C0
:1008FC008039AD002D08B2002808AD002D07AE00E0
:10090C002E08B800A71F8B2C8C2C8D2C3814380873
:10091C000319912C922CA12C380A031D962C972C80
:10092C009F2C0030A8000030A7000030A60000303B
:10093C00A500A717A92C0030A8000030A700003094
:10094C00A6000030A5002C088039AD002D08B20699
:10095C002C08AD002D07AE002E08B700AB1FB72C2E
:10096C00B82CB92C371437080319BD2CBE2CCD2C40
:10097C00370A031DC22CC32CCB2C0030AC0000302A
:10098C00AB000030AA000030A900AB17D52C00300A
:10099C00AC000030AB000030AA000030A9003708D2
:1009AC000319D92CDA2CDF2C3808031DDE2CDF2C94
:1009BC00E82C0030A8000030A7000030A600003062
:1009CC00A500DB2F2508AD002D08F0002B080A161A
:1009DC008A11EC240A128A11710883120313BE00C7
:1009EC007008BD003D08AD00AE01AF01B00130088C
:1009FC00B6002F08B5002E08B4002D08B3003E0831
:100A0C00AD00AE01AF01B0013008BC002F08BB0037
:100A1C002E08BA002D08B9002608AD002D08F000EC
:100A2C002A080A168A11EC240A128A1171088312F8
:100A3C000313BE007008BD003D08AD00AE01AF0150
:100A4C00B0012D08B3072E0803110318013E03193A
:100A5C00302DB4072F0803110318013E0319372D4D
:100A6C00B507300803110318013E03193E2DB607D4
:100A7C003E08AD00AE01AF01B0012D08B9072E083C
:100A8C0003110318013E03194C2DBA072F0803114B
:100A9C000318013E0319532DBB073008031103182B
:100AAC00013E03195A2DBC072708AD002D08F00094
:100ABC0029080A168A11EC240A128A117108831269
:100ACC000313BE007008BD003D08AD00AE01AF01C0
:100ADC00B0012D08B3072E0803110318013E0319AA
:100AEC00782DB4072F0803110318013E03197F2D2D
:100AFC00B507300803110318013E0319862DB607FC
:100B0C003E08AD00AE01AF01B0012D08B9072E08AB
:100B1C0003110318013E0319942DBA072F08031172
:100B2C000318013E03199B2DBB0730080311031852
:100B3C00013E0319A22DBC070830AD000310B30D04
:100B4C00B40DB50DB60DAD0BA42D2608AD002D08BA
:100B5C00F00029080A168A11EC240A128A1171086D
:100B6C0083120313BE007008BD003D08AD003E08A3
:100B7C00AE00AF01B0012D08B3072E080311031806
:100B8C00013E0319CA2DB4072F0803110318013EA7
:100B9C000319D12DB507300803110318013E0319B1
:100BAC00D82DB6072508AD002D08F0002A080A1626
:100BBC008A11EC240A128A11710883120313BE00E5
:100BCC007008BD003D08AD003E08AE00AF01B0019D
:100BDC002D08B3072E0803110318013E0319F72D36
:100BEC00B4072F0803110318013E0319FE2DB50796
:100BFC00300803110318013E0319052EB6070830FF
:100C0C00AD000310B30DB40DB50DB60DAD0B072E25
:100C1C002508AD002D08F00029080A168A11EC24CD
:100C2C000A128A11710883120313BE007008BD00EA
:100C3C003D08AD003E08AE00AF01B0012D08B30772
:100C4C002E0803110318013E03192D2EB4072F088B
:100C5C0003110318013E0319342EB5073008031194
:100C6C000318013E03193B2EB6072608AD002D08CC
:100C7C00F0002B080A168A11EC240A128A1171084A
:100C8C0083120313BE007008BD003D08AD003E0882
:100C9C00AE00AF01B0012D08B9072E0803110318DF
:100CAC00013E03195A2EBA072F0803110318013EEF
:100CBC000319612EBB07300803110318013E0319F9
:100CCC00682EBC072708AD002D08F0002A080A166C
:100CDC008A11EC240A128A11710883120313BE00C4
:100CEC007008BD003D08AD003E08AE00AF01B0017C
:100CFC002D08B9072E0803110318013E0319872E7E
:100D0C00BA072F0803110318013E03198E2EBB07D7
:100D1C00300803110318013E0319952EBC07270850
:100D2C00AD002D08F0002B080A168A11EC240A12CB
:100D3C008A11710883120313BE007008BD003D08B0
:100D4C00AD003E08AE00AF01B00108300310AD0D90
:100D5C00AE0DAF0DB00DFF3E031DAC2E2D08B90727
:100D6C002E0803110318013E0319BD2EBA072F08D4
:100D7C0003110318013E0319C42EBB0730080311DD
:100D8C000318013E0319CB2EBC073308AD00340801
:100D9C00AE003508AF003608B00018300310B00CA8
:100DAC00AF0CAE0CAD0CFF3E031DD42E2D08B907B5
:100DBC002E0803110318013E0319E52EBA072F085C
:100DCC0003110318013E0319EC2EBB073008031165
:100DDC000318013E0319F32EBC070830AD000310B5
:100DEC00B30DB40DB50DB60DAD0BF52E3808370798
:100DFC00AD00AE01AE0D2D08823EBD002E080318CD
:100E0C00013EFF3EBE00272F0130AD000310B90D8F
:100E1C00BA0DBB0DBC0DAD0B0C2FB61F162F172F1B
:100E2C00182F39140130AD000310B30DB40DB50DEE
:100E3C00B60DAD0B1A2FFF30BD070318BE0AFF30DD
:100E4C00BE07BB1F2A2F2B2F0A2FB701B61F2F2F20
:100E5C00302F4C2FFF303305AD00FF303405AE0082
:100E6C00FF303505AF007F303605B00030082F0459
:100E7C002E042D040319432F442F472FB701B70A13
:100E8C004C2F391C4A2F4B2F4C2F442F370803194A
:100E9C00502F512F822F0130B90700300318013029
:100EAC00BA07003003180130BB07003003180130BB
:100EBC00BC073C1C622F632F822F3908AD003A0807
:100ECC00AE003B08AF003C08B0000130B100300D63
:100EDC00B00CAF0CAE0CAD0CB10B6D2F3008BC00D0
:100EEC002F08BB002E08BA002D08B9000130BD0731
:100EFC000318BE0A0030BE073E08803AFF0080305F
:100F0C007F02031D8B2FFF303D02031C8E2F8F2F72
:100F1C009A2F7F3083120313BC008030BB0000304B
:100F2C00BA000030B900CF2F831203133E08803A69
:100F3C00FF0080307F02031DA52F01303D020318F6
:100F4C00A82FA92FB52F003083120313BC0000303B
:100F5C00BB000030BA000030B900B201CF2F8312B1
:100F6C0003133D08AD002D08B800FF30B905FF3064
:100F7C00BA057F30BB050030BC05381CC62FC72F07
:100F8C00C82FBB173808AD0003102D0CAE002E086F
:100F9C00BC003208AD002D08BC043C08A8003B087E
:100FAC00A7003A08A6003908A50008008317B0303E
:100FBC00FD001430FE003E30FF00A03084000A1605
:100FCC008A1152240A128A1190308400A0300A1619
:100FDC008A111C240A128A118313C9308400F03040
:100FEC000A168A111C240A128A11EE0183010A12B4
:040FFC008A118829A5
:10100C00831203132308F3002208F2002108F100D5
:10101C002008F0000030F7000030F6000030F5003A
:10102C000030F4000A168A119B260A128A15031C3A
:10103C0020282128322883120313240884008313C8
:10104C008001840A80010030A3000030A20000302F
:10105C00A1000030A00061288312031323087F39FC
:10106C00FC00FD010310FC0DFD0D240884007C0820
:10107C0083138000840A7D088000220D220D013923
:10108C00FC00FD01240884007C088004840A7D088F
:10109C0080042408840082308007840F0008031821
:1010AC00000AFF00FF307F0780008403230880398B
:1010BC003F38A300A213080000307005F800003080
:1010CC007105F90080307205FA007F307305FB0062
:1010DC007B087A0479047804031D752876287E2809
:1010EC000030F3000030F2000030F1000030F0006E
:1010FC0000307405F80000307505F9008030760575
:10110C00FA007F307705FB007B087A0479047804B9
:10111C00031D912892289A280030F7000030F60021
:10112C000030F5000030F400F31F9D289E28C228E3
:10113C000030F8000030F9000030FA008030FB007D
:10114C007008F8027108031C710FAD28AE28F90263
:10115C007208031C720FB328B428FA027308031C1C
:10116C00730FB928BA28FB027B08F3007A08F20047
:10117C007908F1007808F000F71FC528C628EA287E
:10118C000030F8000030F9000030FA008030FB002D
:10119C007408F8027508031C750FD528D628F902B7
:1011AC007608031C760FDB28DC28FA027708031C70
:1011BC00770FE128E228FB027B08F7007A08F6009B
:1011CC007908F5007808F4008030F3068030F706D3
:1011DC0077087302031DFC2876087202031DFC2895
:1011EC0075087102031DFC28740870020318FF288F
:1011FC00002902290310032903140800F8007808B9
:10120C00031909290A291E29F31F0D290E291E2944
:10121C007009FA007109FB007209FC007309FD00EA
:10122C00FA0A0319FB0A0319FC0A0319FD0A2629F9
:10123C007308FD007208FC007108FB007008FA00CE
:10124C007308720471047004031D2D292E2937298B
:10125C000030F3000030F2000030F1000030F000FC
:10126C00BD299630F4007408F90049290130F400C6
:10127C007408F90701300310FD0CFC0CFB0CFA0C84
:10128C00FF3E031D4129FE307D05031D4E294F29CC
:10129C003C296B290130F4007408F9070130FA0776
:1012AC00003003180130FB07003003180130FC0735
:1012BC00003003180130FD0701300310FD0CFC0C4D
:1012CC00FB0CFA0CFF3E031D6329FF307D05031D4B
:1012DC007029712950297D290130F9020130F4005F
:1012EC000310FA0DFB0DFC0DFD0DF40B7629FC1B08
:1012FC0080298129872902307902031886298729B8
:10130C00722979188A298B299329FF30FA05FF3025
:10131C00FB057F30FC05FF30FD050310F90C790847
:10132C00F400F501F601F70118300310F40DF50D7A
:10133C00F60DF70DFF3E031D9B297408FA04750882
:10134C00FB047608FC047708FD0478080319AF2920
:10135C00B029B529F31FB329B429B529FD177D0888
:10136C00F3007C08F2007B08F1007A08F00008001A
:10137C00831603132508A70001300310A70DFF3EA9
:10138C00031DC3290310270D240784000A168A1194
:10139C0000200A128A15A8000A168A1100200A12C7
:1013AC008A15A9000A168A1100200A128A15AA00A9
:1013BC000A168A1100200A128A15AB002B08AF00FE
:1013CC002A08AE002908AD002808AC00892AFF3095
:1013DC00A5070318A60AFF30A6072508A7000130A9
:1013EC000310A70DFF3E031DF6290310270D24073C
:1013FC0084000A168A1100200A128A15A8000A16FF
:10140C008A1100200A128A15A9000A168A110020D6
:10141C000A128A15AA000A168A1100200A128A15C5
:10142C00AB002B0883120313DC00831603132A086A
:10143C0083120313DB00831603132908831203138F
:10144C00DA0083160313280883120313D9008316BA
:10145C0003132F0883120313A800831603132E08FB
:10146C0083120313A700831603132D08831203138F
:10147C00A600831603132C0883120313A5008316EE
:10148C000313230883120313AC00831603132208DF
:10149C0083120313AB008316031321088312031367
:1014AC00AA0083160313200883120313A9000A123F
:1014BC008A117B240A128A15831203132808E00070
:1014CC002708DF002608DE002508DD000A128A1531
:1014DC0078250A128A15831203135C0883160313EA
:1014EC00AF00831203135B0883160313AE00831241
:1014FC0003135A0883160313AD0083120313590800
:10150C0083160313AC0025082604031D8E2A8F2A8C
:10151C00ED292F08A3002E08A2002D08A1002C08ED
:10152C00A000080083120313AD002130A50025088C
:10153C00AA00842B25302E060319A52AA62AB22A26
:10154C002E08A5002D088400250883138000013087
:10155C00A5002508AD07842BA801CB2A2A088400F6
:10156C0083130008A5002508AE000230A50025084D
:10157C00AA072E08A5002D088400250883138000D7
:10158C000130A5002508AD07842B0130A007FF30E2
:10159C00200784000A168A1100200A128A15AE0050
:1015AC00A500A6012608003A0319DD2ABF2A250842
:1015BC00003A0319962B633A0319B42A073A031914
:1015CC00EB2A0D3A0319EB2ABF2A2A08840083134D
:1015DC000008AB00840A0008AC000230A500250806
:1015EC00AA07AC1FFA2AFB2A042B0330A5002508F6
:1015FC00A804AB09AC09AB0A0319AC0AAE01AE0ADC
:10160C002E08A5002507013E84000A168A11002029
:10161C000A128A15A6000A168A1100200A128A15C7
:10162C00A70027082C02031D1D2B26082B020318CC
:10163C00202B212B222B2C2B0130A5002508AE07AB
:10164C0005302E06031D2B2B2C2B062B28080339BB
:10165C000319312B322B3D2B2D30A5002D08840086
:10166C002508831380000130A5002508AD072E083E
:10167C00A5002508A9007B2B0A30F8000030F900E2
:10168C002908A5002507013E84000A168A110020AE
:10169C000A128A15F0000A168A1100200A128A15FD
:1016AC00F1002C08F3002B08F2000A168A115726B9
:1016BC000A128A157108FB007008FA000A168A11C2
:1016CC009C250A128A157808303E83120313A60053
:1016DC002608AE002E08A5002D08840025088313CB
:1016EC0080000130A5002508AD07FF30A5002508B6
:1016FC00A907290A031D832B842B422B0130A00739
:10170C00FF30200784000A168A1100200A128A155D
:10171C00A5002508AE002E08031D952B962BA02A9C
:10172C002D088400831380010800831203134608DC
:10173C008039C7004708D0004608C7004707C800D3
:10174C004808D700C51FAB2BAC2BAD2B5714570833
:10175C000319B12BB22BC22B570A031DB62BB72B77
:10176C00BF2B0030C6000030C5000030C400003074
:10177C00C300C517C601CA2B0030C6000030C50017
:10178C000030C4000030C30042088039C70047084D
:10179C00D0064208C7004707C8004808D800C11F38
:1017AC00D82BD92BDA2B581458080319DE2BDF2B26
:1017BC00EF2B580A031DE32BE42BEC2B0030C2005B
:1017CC000030C1000030C0000030BF00C117C201A2
:1017DC00F72B0030C2000030C1000030C0000030D8
:1017EC00BF004208410440043F04031DFE2BFF2BA5
:1017FC00182C0030C6000030C5000030C40000308A
:10180C00C3008030C5047F30C6045008C7004708A9
:10181C00C6044608C2004508C1004408C00043087D
:10182C00BF00772D5708031D1C2C1D2C262C0030B7
:10183C00C2000030C1000030C0000030BF00772D66
:10184C005708C700C8014808CA0058084702C90011
:10185C00031CCA0349087F3ED1004A080318013E05
:10186C00003ED2004608CF004508CE004408CD000B
:10187C004308CC000030C6000030C5000030C40066
:10188C000030C3000030D6000030D5000030D4004A
:10189C000030D300D8019C2C58080319562C572C17
:1018AC00772C0130C7000310CC0DCD0DCE0DCF0D14
:1018BC00C70B592C0130C7000310C30DC40DC50D47
:1018CC00C60DC70B622CD61F6C2C6D2C6E2C4314C2
:1018DC000130C7000310D30DD40DD50DD60DC70B99
:1018EC00702C42084F02031D852C41084E02031D2B
:1018FC00852C40084D02031D852C3F084C02031C0F
:10190C00882C892C982C56173F08CC024008031CB5
:10191C00400FCD024108031C410FCE024208031CAC
:10192C00420FCF020130C7004708D8071A305802BF
:10193C00031CA12CA22C522C4F084E044D044C0419
:10194C000319A92CAA2CC92C5314C92C0130C7007B
:10195C000310C30DC40DC50DC60DC70BAE2CD61F81
:10196C00B82CB92CBA2C43140130C7000310D30D7A
:10197C00D40DD50DD60DC70BBC2CFF30D1070318D9
:10198C00D20AFF30D207C51FCC2CCD2CAC2CD801E1
:10199C00D61FD12CD22CEE2CFF305305C700FF30B4
:1019AC005405C800FF305505C9007F305605CA00E4
:1019BC004A084904480447040319E52CE62CE92C91
:1019CC00D801D80AEE2C431CEC2CED2CEE2CE62C7A
:1019DC0058080319F22CF32C242D0130C3070030C6
:1019EC0003180130C407003003180130C50700305C
:1019FC0003180130C607461C042D052D242D430861
:101A0C00C7004408C8004508C9004608CA00013090
:101A1C00CB004A0DCA0CC90CC80CC70CCB0B0F2D34
:101A2C004A08C6004908C5004808C4004708C30056
:101A3C000130D1070318D20A0030D2075208803A7D
:101A4C00FF0080307F02031D2D2DFF305102031C3F
:101A5C00302D312D3F2DFF3083120313D100003078
:101A6C00D2000030C6000030C5000030C400003089
:101A7C00C300831203135208803AFF0080307F02A8
:101A8C00031D4A2D0130510203184D2D4E2D5B2D97
:101A9C0083120313D101D2010030C6000030C500FF
:101AAC000030C4000030C300D0018312031351086E
:101ABC00C7004708D700571C642D652D672DC51727
:101ACC006B2D7F30C7004708C5055708C7000310AA
:101ADC00470CC8004808C6005008C7004708C60491
:101AEC000F2C0800831203135C088039E100610895
:101AFC00E9005C08E1006107E2006208EB00DB1F13
:101B0C00882D892D8A2D6B146B0803198E2D8F2D22
:101B1C009F2D6B0A031D932D942D9C2D0030DC0002
:101B2C000030DB000030DA000030D900DB17DC01BC
:101B3C00A72D0030DC000030DB000030DA00003074
:101B4C00D90060088039E1006108EA006A0869067A
:101B5C000319B12DB22DB32D69176008E10061078F
:101B6C00E2006208EA00DF1FBC2DBD2DBE2D6A14F9
:101B7C006A080319C22DC32DD32D6A0A031DC72D64
:101B8C00C82DD02D0030E0000030DF000030DE002A
:101B9C000030DD00DF17E001DB2D0030E00000300D
:101BAC00DF000030DE000030DD006B086A02031835
:101BBC00E02DE12D252E691FE42DE52DE92D80303A
:101BCC00E1006108E9066B08E1006108EC006A08B5
:101BDC00E1006108EB006C08E1006108EA005908BB
:101BEC00E1006108EC005D08E1006108D9006C08B7
:101BFC00E1006108DD005A08E1006108EC005E08B4
:101C0C00E1006108DA006C08E1006108DE005B08A5
:101C1C00E1006108EC005F08E1006108DB006C0882
:101C2C00E1006108DF005C08E1006108EC0060087D
:101C3C00E1006108DC006C08E1006108E000EC01E7
:101C4C006A08E100E2016208E4006B086102E3004B
:101C5C00031CE4036408803AFF0080307F02031DFC
:101C6C00392E1A306302031C3C2E3D2E7A2E831221
:101C7C0003135C085B045A045904031D462E482EBA
:101C8C000130492E0030E1006108EC000030DC002E
:101C9C000030DB000030DA000030D9006A08E100C7
:101CAC006108EB00822E6C1C5C2E5D2E662E6C087F
:101CBC00E1000310610C0138E2006208EC00682EB0
:101CCC000310EC0C591C6B2E6C2E6D2EEC17013086
:101CDC00E1005C0DDC0CDB0CDA0CD90CE10B6F2E8B
:101CEC000130E1006108EB07831203136A086B02F1
:101CFC00031C812E822E592E691B852E862ED12EE9
:101D0C006B08031D8A2E8B2E942E0030DC000030C5
:101D1C00DB000030DA000030D900FF2F5D08D90756
:101D2C005E0803110318013E03199D2EDA075F08A4
:101D3C0003110318013E0319A42EDB0760080311DD
:101D4C000318013E0319AB2EDC075C1CAE2EAF2E24
:101D5C00852F6C1CB22EB32EBC2E6C08E100031028
:101D6C00610C0138E2006208EC00BE2E0310EC0C92
:101D7C00591CC12EC22EC32EEC170130E1005C0D94
:101D8C00DC0CDB0CDA0CD90CE10BC52E0130E100BC
:101D9C006108EB07852F5C08803AFF006008803AE9
:101DAC007F02031DE32E5F085B02031DE32E5E081A
:101DBC005A02031DE32E5D0859020318E62EE72E86
:101DCC003F2FFF30E100FF30E200FF30E300FF3037
:101DDC00E4005D08E5005E08E6005F08E7006008C7
:101DEC00E8005908E5025A08031C5A0FFE2EFF2E74
:101DFC00E6025B08031C5B0F042F052FE7025C084F
:101E0C00031C5C0F0A2F0B2FE8026508E10766081C
:101E1C000318660F122F132FE20767080318670FBA
:101E2C00182F192FE30768080318680AE4076408D9
:101E3C00DC006308DB006208DA006108D90080303E
:101E4C00E1006108E906EC09EC0A6C08031D2F2F70
:101E5C00302F4D2F0130D907003003180130DA072D
:101E6C00003003180130DB07003003180130DC07A9
:101E7C004D2F5D08D9025E08031C5E0FDA025F0865
:101E8C00031C5F0FDB026008031C600FDC025C08A4
:101E9C005B045A045904031D542F552F812F6C08D1
:101EAC00031D592F5A2F812F0030DC000030DB002E
:101EBC000030DA000030D900FF2F0130E1000310B0
:101ECC00D90DDA0DDB0DDC0DE10B652FEC1F6F2F3F
:101EDC00702F712F59146C1C742F752F782F0314BD
:101EEC00EC0D7A2F0310EC0D6B0803197E2F7F2F4E
:101EFC00812F0130EB02DB1F842F852F632FEA012A
:101F0C00EC1F892F8A2F982F6C087F3903198F2F7C
:101F1C00902F932FEA01EA0A982F591C962F972F8E
:101F2C00982F902F6A0803199C2F9D2FD12F0130C9
:101F3C00D907003003180130DA07003003180130DC
:101F4C00DB07003003180130DC075C1CAE2FAF2F11
:101F5C00D12F5908E1005A08E2005B08E3005C0845
:101F6C00E4000130E500640DE40CE30CE20CE10C40
:101F7C00E50BB92F6408DC006308DB006208DA00AB
:101F8C006108D9006B0A0319CC2FCD2FD12F01304A
:101F9C00E1006108EB076B0A0319D52FD62FDB2F55
:101FAC006B08031DDA2FDB2FE92F0030DC0000302B
:101FBC00DB000030DA000030D9006B08031DE72F7E
:101FCC00E82FE92FE9016B1CEC2FED2FEF2FDB171E
:101FDC00F32F7F30E1006108DB056B08E100031093
:101FEC00610CE2006208DC00E91FFD2FFE2FFF2FC1
:101FFC00DC17080010308A000408840A82070034B9
:10200C00013400340A34003464340034E8340334CA
:10201C00103427340034003400340034C434FF341A
:10202C007F343F348034EF34FF34BE349034E134A9
:10203C00A9343E34EC3482347634BE348234AD343C
:10204C002B343E340E343C34C334BD348734D13459
:10205C0013343D3441347834D334BB345434653484
:10206C006D34703465347234613474347534723454
:10207C0061343A34203400342534643425346334E8
:08208C004334203420340034F9
:1028380064008001840A04060319003404061D2C70
:10284800F000831203130C1E2A2C2B2C252C700845
:102858009900080001300A168A1166250A168A119D
:102868000830F400C930F300F30B382CF40B382C83
:102878003D2C080031343234333441343434353467
:102888003634423437343834393443342A343034E3
:10289800233444347E088A007F0882000A168A118D
:1028A8004E240A168A118000840A04087D0603193A
:1028B8000034FF0A0319FE0A522C83160313051469
:1028C800073083160317880083160313851405152C
:1028D8009F171F129F12831203139E01831603135F
:1028E8009E010800F400842C7408840000080A1271
:1028F8008A1106200A168A110130F3007308F407BA
:102908007408840083130008031D8B2C8C2C782CEE
:102918000800F2009B2C7208840000080A168A112D
:1029280024240A168A110130F1007108F20772088E
:10293800840083130008031DA22CA32C8F2C0800ED
:10294800F2007208F1007108F300B22C0130F100B6
:102958007108F3070130F1007108F007700884006E
:102968000A168A1100200A168A11F10073088400D9
:102978007108831380000008031DC32CC42CAA2CE3
:102988000800F800023078020318CB2CCC2CD92C84
:1029980075080F398038F7007708F90079080A16A2
:1029A8008A1166250A168A11E52C75080F39C03870
:1029B800F7007708F90079080A168A1166250A16B9
:1029C8008A1176080A168A1176240A168A110800CE
:1029D800F800F401F5017008F200F3017208F6003E
:1029E8007308F700781CF92CFA2C002D7608F407E8
:1029F8000318F50A7708F50701300310F60DF70DEF
:102A0800FF3E031D012D0310F80C7808031D0D2D42
:102A18000E2DF62C7508F1007408F0000800F2007D
:102A28007208F1007108F3001D2D0130F1007108E2
:102A3800F3077308840083130008031D242D252D34
:102A4800192D2E2D0130F1007108F3070130F10026
:102A58007108F007700884000008F100730884000A
:102A6800710880000008031D3A2D3B2D262D080013
:102A78008316031388012730F400F530F300F30BB5
:102A8800432DF40B432D02300A168A1166250A16C7
:102A98008A1128300A168A1166250A168A11013009
:102AA8000A168A1166250A168A110C300A168A1126
:102AB80066250A168A1106300A168A1166250A162C
:102AC8008A110800F200F0307205F0008312031337
:102AD80008080F397004880008118815000083124F
:102AE800031388110330F1009730F000F00B7A2DB2
:102AF800F10B7A2D7F2D7208F00004300310F00DD1
:102B0800FF3E031D822D8312031308080F3970043A
:102B18008800881500008312031388110830F1001B
:102B2800C930F000F00B962DF10B962D9B2D080067
:102B3800780879040319A12DA22DD12DFD01FD0AD4
:102B4800B02D01300310F80DF90DFF3E031DA62D21
:102B58000130FC007C08FD07F91FB32DB42DA52D0D
:102B680079087B02031DBA2D78087A02031CBD2D53
:102B7800BE2DC42D7808FA027908031CFB03FB025A
:102B880001300310F90CF80CFF3E031DC52D013070
:102B9800FD02031DD02DD12DB42D7B08F9007A0834
:102BA800F80008007008F20002300310F20DFF3E32
:102BB800031DD92D3C307205F300831203131F083F
:102BC800C33973049F000130F20000309F180130B0
:102BD800013EF02D0310F20DFF3E031DEE2D0130D6
:102BE800F30000301F180130013EFC2D0310F30DD7
:102BF800FF3E031DFA2D73087204F40074089F0445
:102C08009F18072E082E042E1E08F600831603139D
:102C18001E08F5007608F1007508F0000800831614
:102C2800031307138717831203132908F3002808CF
:102C3800F2002708F1002608F0000030F7007A308B
:102C4800F6001230F5000030F4000A168A116327E6
:102C58000A168A117308FC007208FB007108FA0052
:102C68007008F9000030F3000030F2000030F10085
:102C78004030F0007C08F7007B08F6007A08F50081
:102C88007908F4000A168A1163270A168A1170084F
:102C9800FF3E83160313990020309800903083126A
:102CA800031398000800F501F60170087104031970
:102CB8005E2E5F2E962EF701F70A6D2E0130031057
:102CC800F00DF10DFF3E031D632E0130F400740872
:102CD800F707F11F702E712E622E01300310F50DCB
:102CE800F60DFF3E031D722E71087302031D7E2E22
:102CF80070087202031C812E822E892E7008F2023F
:102D08007108031CF303F302751401300310F10C6E
:102D1800F00CFF3E031D8A2E0130F702031D952E8D
:102D2800962E712E7608F1007508F0000800003024
:102D38007005F80000307105F90080307205FA005E
:102D48007F307305FB007B087A0479047804031D3F
:102D5800AE2EAF2EB72E0030F3000030F200003058
:102D6800F1000030F00000307405F80000307505FF
:102D7800F90080307605FA007F307705FB007B0884
:102D88007A0479047804031DCA2ECB2ED32E003082
:102D9800F7000030F6000030F5000030F400770846
:102DA8007306031DE12E76087206031DE12E7508D1
:102DB8007106031DE12E740870060319E42EE52E32
:102DC800E72E0310E82E031408000310720D730D8C
:102DD800F4007408FA007A08031DF32EF42EFD2E71
:102DE8000030F3000030F2000030F1000030F00055
:102DF800622F7008F4007108F5007208F600730875
:102E0800F7001F300310F70CF60CF50CF40CFF3E1E
:102E1800031D062F7408F8007808F900F217FF3030
:102E2800F005FF30F105FF30F2050030F30596306C
:102E3800FA02FA1F202F212F3B2F7A08803A973E5B
:102E48000318272F282F292FF42E01300310F30CF5
:102E5800F20CF10CF00CFF3E031D2A2F0130F40098
:102E68007408FA07031D392F3A2F292F522F2030C3
:102E78007A02031C402F412F4D2FF42E0130F4000D
:102E88000310F00DF10DF20DF30DF40B442F01308A
:102E9800FA027A08031D512F522F422F790803197D
:102EA800562F572F622FF009F109F209F309F00A9A
:102EB8000319F10A0319F20A0319F30A0800831225
:102EC8000313A101F31F692F6A2F772FF009F10966
:102ED800F209F309F00A0319F10A0319F20A0319AE
:102EE800F30AA101A10AF71F7A2F7B2F8A2FF40971
:102EF800F509F609F709F40A0319F50A0319F60A98
:102F08000319F70A0130F8007808A1060030A50077
:102F18000030A4000030A3000030A200730872043F
:102F2800710470040319992F9A2FE72FA001A00AA2
:102F3800AA2F0130F8000310F00DF10DF20DF30D7A
:102F4800F80B9F2F0130F8007808A007F31FAD2F6A
:102F5800AE2F9D2F0130F8000310A20DA30DA40D74
:102F6800A50DF80BB02F73087702031DC52F720843
:102F78007602031DC52F71087502031DC52F700841
:102F88007402031CC82FC92FD82F7008F4027108C7
:102F9800031C710FF5027208031C720FF602730806
:102FA800031C730FF702221401300310F30CF20C08
:102FB800F10CF00CFF3E031DD92F0130A002031DB8
:102FC800E62FE72FAE2F21080319EB2FEC2FF72F51
:102FD800A209A309A409A509A20A0319A30A0319A6
:102FE800A40A0319A50A2508F3002408F2002308F7
:082FF800F1002208F0000800BE
:04400E00D520FF3F7B
:00000001FF
